:100000000C942A001895000018950000189500001F
:10001000189500001895000018950000189500002C
:10002000189500001895000018950000189500001C
:10003000189500001895000018950000189500000C
:1000400018950000189500001895000018950000FC
:10005000189500008FE58DBFC0E4E8E34E2E88E0E0
:100060008EBFD8E0F8E05F2EEEEFF7E0A0E6B0E05C
:10007000A89584B7082E877F84BF88E1992781BD22
:1000800091BD88278D933197E9F76624B89AC09A75
:1000900084E690E00E945F00C09884E690E00E94B1
:1000A0005F00C09A0C944700F894FFCF3197F1F7A6
:1000B0000895689462F80895E89462F80895EF93BB
:1000C000FF93EE27E82BE92B31F0E0EDF7E03197D5
:0C00D000F1F70197D1F7FF91EF9108952F
:00000001FF
