:100000000C942A001895000018950000189500001F
:10001000189500001895000018950000189500002C
:10002000189500001895000018950000189500001C
:10003000189500001895000018950000189500000C
:1000400018950000189500001895000018950000FC
:10005000189500008FE58DBFC0E4E8E34E2E88E0E0
:100060008EBFD8E0F8E05F2EEEEFF7E0A0E6B0E05C
:1000700088278D933197E9F70E94300166248CE040
:100080000E947E010E94150183E086B980E487B951
:10009000379A0E945B000E9478000E9496000E949E
:1000A000A7000E94E10088EC90E00E94AB010C9454
:1000B0004B00F894FFCF0E9415018FE711E00E94DA
:1000C0002401EAE1F8E00E940E018FEB11E00E94AA
:1000D0002401E8E2F8E00E940E01E2E0F0E00E9474
:1000E00027010E94150188EC90E00E94AB01089561
:1000F00087E4806487B90E949D02A0E6B0E08D93FA
:100100009C93E2E1F8E00E94A003E0E6F0E0D190E9
:10011000E080FF2400270E94CA020E946C03EDE0E9
:10012000F0E0A2E6B0E00E9403040895E6E1F8E002
:100130000E94A003E2E6F0E00E94A6020E941603DD
:10014000EDE0F0E0AAE6B0E00E9403040895EAE6DC
:10015000F1E080E40E947E0158E0C895802D0E9465
:10016000780131965A95C9F704C007050720202069
:1001700020208FE711E00E942401EAE3F8E00E94CA
:100180000E01A0E2B8E0AF93BF93EAE6F0E00E9470
:10019000A6020E94BA0111E001E0BF91AF910E9456
:1001A000B603E0E2F8E0A0E2B8E00E94FE030E949D
:1001B000060180E00E947801E2E4F8E00E940E016E
:1001C00008958FEB11E00E942401E6E4F8E00E941C
:1001D0000E01A0E2B8E0AF93BF93E2E6F0E00E9428
:1001E000A6020E94BA0111E001E0BF91AF910E9406
:1001F000B603E0E2F8E0A0E2B8E00E94FE030E944D
:100200000601EEE4F8E00E940E010895A0E2B8E0D5
:100210008D91882311F06CD0FBCF08950E949C0330
:10022000802D11F065D0FACF089581E067D015D008
:1002300080E864C08FE7213039F08FEB223021F065
:100240008FE8233009F08FEC810F0C947E0188EE4B
:1002500093E081D03197D9F7089583E099277BC047
:100260008AEF90E00E94AB018F9A8E9A8D9A8C9AB9
:100270008A9A889A909885E090E00E94AB019298C3
:1002800097989698959A949A929AEF93FF93E5E1AE
:10029000F0E00E949F01FF91EF91929859D0929ABD
:1002A000EF93FF93E5E1F0E00E949F01FF91EF9152
:1002B00092984ED0929AEF93FF93E5E1F0E00E947E
:1002C0009F01FF91EF91929843D09498929AEF9367
:1002D000FF93E5E1F0E00E949F01FF91EF9192987A
:1002E00037D088E20BD08EE009D086E007D00895A1
:1002F000909A829505D004D02BD008959098F9CF8C
:10030000859510F4949A01C09498859510F4959A67
:1003100001C09598859510F4969A01C09698859598
:1003200010F4979A01C09798929AEF93FF93E5E1A2
:10033000F0E00E949F01FF91EF919298089531970C
:10034000F1F70895689462F80895E89462F80895C2
:1003500081E090E000C0EF93FF93EE27E82BE92BBC
:1003600031F0EAEFF0E03197F1F70197D1F7FF9123
:10037000EF9108958DE207FD8D938F2D881F802FBB
:10038000881F8F57082F6894F7F8802F87FF15C0B4
:1003900080958395082F80E38D938EE28D93802F37
:1003A000815228F080E38D9399279C9308954427E8
:1003B0000A95802F09F196D01FC0805230F09EE43C
:1003C0009D9381E48D939D93EFCF4427DF92EF922D
:1003D000FF920F938FE1801B11F0082F83D089D0FB
:1003E0009EE29D930F91FF90EF90DF90442703953D
:1003F000003209F4D7CF2BD03F93E4E8F4E038E1A2
:100400002F2D1E2D0D2DFF24EE24DD244427000F5B
:10041000111F221FA8F42F923F920E949C03102CC0
:100420000E949C03202C0E949C03302C0E949C0361
:100430003197410DD21CE31CF01C3F902F9001C05E
:10044000339631963A9519F73F9107D0AFCFDD0C2F
:10045000EE1CFF1C0A95D9F70895002719E058D023
:100460008F93802B11F0039501C08F911A95B9F7E6
:10047000802F882309F496CF8F91805D8D930A9504
:10048000D9F792CF0065CD1D80B2E60E40597307B3
:10049000A0ACB90350D6DC01286BEE009435770090
:1004A000CA9A3B0065CD1D00B2E60E0059730700E5
:1004B000ACB90300D6DC01006BEE0000357700001C
:1004C0009A3B0000CD1D0000E60E000073070000FF
:1004D000B9030000DC010000EE000000770000001E
:1004E0003B000000F694E794D79447950A95D1F71E
:1004F000089500270DD08F9303958F2D8E298D2978
:10050000842BC1F78F91805D8D930A95D9F74CCFDD
:100510001F930F93002710E2440FDD1CEE1CFF1CFD
:10052000001F802F9AE0890B10F0082F43951A9531
:1005300099F7802F0F911F910895369A3699FECF23
:10054000369A3699FECF84B195B10895D190E19055
:10055000F190019108952191319141915191089526
:10056000102F90E8FF0C001F0927990FF7941078BF
:10057000652F90E8440F551F5927990F47956078CC
:1005800000380895FF0C90E89027110F9795F79485
:10059000092F0895102FBD2CDE2CEF2CF02E1123E7
:1005A0004AF4B094D094E094F0949FEFB91AD90A29
:1005B000E90AF90A0EE1FF2039F4FE2CED2CDB2CC0
:1005C000BB240850C2F766C032F00A95BB0CDD1C94
:1005D000EE1CFF1CF9CF01D0D5CFB7FE089590E8EF
:1005E000B91611F4D0FE08959FEFD91AE90AF90A55
:1005F00009F403950895502F2D2D3E2D4F2D612F79
:1006000008952DEC3CEC4CEC5DE366270FC09EDFBB
:10061000F2DFDD24EE2490E8F92E0FE307C09BDF24
:1006200005C02227332740E251E46627552351F1C4
:10063000002381F195DF71F1162700585058089476
:10064000050B18F407FD03C025C007FD23C0469520
:1006500037952795F694E794D79422D0FF202AF077
:10066000DD0CEE1CFF1C015073F09D2D969548F09B
:10067000DD203AF4EE202AF491E0D90E9927E91E04
:10068000F91E80CF07C09FE7092FF92A9FEFD92EC7
:10069000E92E0895DD24EE24FF2400271127089574
:1006A0009F929924AA24BB2488E1D216E306F4067B
:1006B00028F0D21AE30AF40A089401C08894991C1D
:1006C000AA1CBB1CDD0CEE1CFF1C8A9571F7D92CF3
:1006D000EA2CFB2C9F90089543DFE1F25038D1F2D1
:1006E0001627005850580894051F12F418F4CBCF61
:1006F00008F0D0CF0AD0FF202AF0BB0CDD1CEE1C86
:10070000FF1C40CF0F5FFBF13DCF9F929924AA249D
:10071000BB24992788E1990CAA1CBB1CDD1CEE1C8C
:10072000FF1C30F4920EA31EB41ED91EE91EF91E42
:100730008A9589F79F900895C8953196002008956D
:10074000FBDF202DF9DF302DF7DF402DF5DF502DB9
:10075000089599278D9193958823E1F793951196A4
:100760008C9311978E919A95D1F70895EA2FFB2FCC
:1007700000244C918D9103948E32E1F711248D91D8
:1007800013948823E1F71A94101640F41197202F40
:100790002119239580E38D932A95E9F7113039F5D6
:1007A0009927AE2FBF2FA00DB91FA00FB91F8C9195
:1007B0009C93853308F421C031E08E918E32E9F3A9
:1007C0008D3241F0830F8A3319F480E331E001C0A8
:1007D00033278C93AE1789F7332341F0AE2FBF2F09
:1007E000B8DF81E34D3209F431968083089588277C
:1007F000E00DF81FE00FF81F8083089581918D931D
:100800008823E1F7089594E081918D939A95E1F71B
:10081000089500409C4000002041202020777777F9
:100820002E4D33322E6972004156522020205049FD
:100830004320202038303531000054656D703A2057
:10084000000043202000496E7075743A20006D56F8
:020850000000A6
:00000001FF
