:100000000C942A001895000018950000189500001F
:10001000189500001895000018950000189500002C
:10002000189500001895000018950000189500001C
:10003000189500001895000018950000189500000C
:1000400018950000189500001895000018950000FC
:10005000189500008FE58DBFC0E4E8E34E2E84E0E4
:100060008EBFD4E0F4E05F2EEEEFF3E0A0E6B0E068
:10007000A89584B7082E877F84BF88E1992781BD22
:1000800091BD88278D933197E9F70E94D4006624AB
:1000900086E886B980E087B9379A07B1007E0060AC
:1000A00007B90E945E01A0E6B0E08D939C93A0E6A4
:1000B000B0E00D911C9142E050E00E949E00A0E64D
:1000C000B0E04D935C938FE711E00E94D100E4EA29
:1000D000F3E00E94C000A0E2B4E0E0E6F0E00E949D
:1000E00079010E94B800EEEAF3E00E94C0000C948F
:1000F0004D00F894FFCF00FC10D0089503D01ED01F
:1001000001F8F9CF0024E89457FF02C009D06894A1
:1001100000F80BD010F80124089502D009D00895FA
:10012000509540954F5F5F4F0895E89417FF0895ED
:10013000009510950F5F1F4F68940895352F242F59
:10014000E894452B11F468940895512F402F00270F
:10015000112780E1440F551F001F111F021B130BB5
:10016000416018F4020F131F4E7F8A9599F7089586
:10017000A0E2B4E08D91882311F05ED0FBCF08950A
:100180000E946701802D11F057D0FACF08958FE7B4
:10019000213039F08FEB223021F08FE8233009F045
:1001A0008FEC810F0C9422018AEF90E00E944F01A6
:1001B0008B9A8A9A899A889ABB9ABA9AC29885E049
:1001C00090E00E944F01C39893989298919A909AC8
:1001D000C39AEF93FF93E6EFF0E00E944301FF9193
:1001E000EF91C39859D0C39AEF93FF93E6EFF0E0F5
:1001F0000E944301FF91EF91C3984ED0C39AEF93B1
:10020000FF93E6EFF0E00E944301FF91EF91C39866
:1002100043D09098C39AEF93FF93E6EFF0E00E94EB
:100220004301FF91EF91C39837D088E20BD08EE065
:1002300009D086E007D00895C29A829505D004D0EF
:100240002BD00895C298F9CF859510F4909A01C0EB
:100250009098859510F4919A01C09198859510F425
:10026000929A01C09298859510F4939A01C0939840
:10027000C39AEF93FF93E6EFF0E00E944301FF91F2
:10028000EF91C39808953197F1F70895689462F853
:100290000895E89462F8089581E090E000C0EF933B
:1002A000FF93EE27E82BE92B31F0E4ECF9E03197EE
:1002B000F1F70197D1F7FF91EF910895369A3699AA
:1002C000FECF369A3699FECF84B195B10895C89580
:1002D000319600200895000F111F221F331F08952B
:1002E00000951095209530950F5F1F4F2F4F3F4F72
:1002F0000895019110810EC00191119121913081D9
:100300000BC00191108117FF05C03FEF2FEF04C014
:10031000008111272227332737FF03C0E1DF8DE259
:100320008D93CF93DF93CF92DF92EF92AA24BB24D9
:10033000CC24DD24EE2440E2CAE0DD2755E093E33F
:100340008881890F87FD9F7083FD907F891B89932A
:100350005A95A9F7C0DFAA1CBB1CCC1CDD1CEE1CE7
:100360004A9551F7E894EFE0FF2782910ED0EB30E9
:10037000E0F71EF068948A2D0CD088278D93EF90BB
:10038000DF90CF90DF91CF910895982F829501D083
:10039000892F8F70805D26F0803309F4089568946A
:1003A0008D93089574656D702069733B0000630040
:00000001FF
