:100000000C942A001895000018950000189500001F
:10001000189500001895000018950000189500002C
:10002000189500001895000018950000189500001C
:10003000189500001895000018950000189500000C
:1000400018950000189500001895000018950000FC
:10005000189500008FE58DBFC0E4E8E34E2E88E0E0
:100060008EBFD8E0F8E05F2EEEEFF7E0A0E6B0E05C
:10007000A89584B7082E877F84BF88E1992781BD22
:1000800091BD88278D933197E9F70E94710066240E
:1000900082E886B980E487B9379A0E946900EAEB62
:1000A000F0E080E40E94BF0058E0C895802D0E94D7
:1000B000B90031965A95C9F704C020040E041F04F4
:1000C0000A1184E893E00E94EC000C944D00F8942F
:1000D000FFCF81E054D002D080E851C083E099275F
:1000E0007BC08AEF90E00E94EC00BF9ABE9ABD9A56
:1000F000BC9ABB9ABA9AC29885E090E00E94EC0044
:10010000C398C798C698C59AC49AC39AEF93FF93A9
:10011000E0E1F0E00E94E000FF91EF91C39859D038
:10012000C39AEF93FF93E0E1F0E00E94E000FF91BB
:10013000EF91C3984ED0C39AEF93FF93E0E1F0E0C4
:100140000E94E000FF91EF91C39843D0C498C39AF6
:10015000EF93FF93E0E1F0E00E94E000FF91EF9168
:10016000C39837D088E20BD08EE009D086E007D064
:100170000895C29A829505D004D02BD00895C298D4
:10018000F9CF859510F4C49A01C0C498859510F4F0
:10019000C59A01C0C598859510F4C69A01C0C69845
:1001A000859510F4C79A01C0C798C39AEF93FF933F
:1001B000E0E1F0E00E94E000FF91EF91C398089524
:1001C0003197F1F70895689462F80895E89462F819
:1001D000089581E090E000C0EF93FF93EE27E82BB5
:1001E000E92B31F0E8ECF0E03197F1F70197D1F726
:0601F000FF91EF9108955C
:00000001FF
