:100000000C942A001895000018950000189500001F
:10001000189500001895000018950000189500002C
:10002000189500001895000018950000189500001C
:10003000189500001895000018950000189500000C
:1000400018950000189500001895000018950000FC
:10005000189500008FE58DBFC0E4E8E34E2E88E0E0
:100060008EBFD8E0F8E05F2EEEEFF7E0A0E6B0E05C
:10007000A89584B7082E877F84BF88E1992781BD22
:1000800091BD88278D933197E9F70E94E600662499
:100090008CE00E9434018F9A8E9880E080937200E9
:1000A0008FE711E00E94DD00E8E2F7E00E94C30064
:1000B00084EF91E00E94610188B391E0892788BBB9
:1000C00088B392E0892788BB87E0A2E7B0E0EC9193
:1000D000FF27A2E30E94F702E0E386E00FEF0E9411
:1000E0000203A0E6B0E08D939C93E4E2F7E00E9467
:1000F000E402E0E6F0E0D190E080FF2400270E94D7
:1001000072020E94B002EDE0F0E0A2E6B0E00E94D0
:100110008C03A0E2B8E0AF93BF93E2E6F0E00E9468
:1001200053020E947001112702E0BF91AF910E941B
:100130003F03E0E2F8E0A6E6B0E00E9487030E94F9
:10014000CE000E94CA00E0E3F7E00E94C3008FEBFC
:1001500011E00E94DD00A6E6B0E00E94BD00E0E4F0
:10016000F7E00E94C30084EF91E00E9461010C94CB
:100170005C00F894FFCFA0E2B8E08D91882311F0E5
:100180006DD0FBCF08950E94E002802D11F066D063
:10019000FACF089582E068D016D012C081E064D012
:1001A00012D080E861C08FE7213039F08FEB223028
:1001B00021F08FE8233009F08FEC810F0C9434018B
:1001C00080E852D0089583E099277BC08AEF90E0C1
:1001D0000E946101BF9ABE9ABD9ABC9ABB9ABA9A14
:1001E000C29885E090E00E946101C398C798C698C4
:1001F000C59AC49AC39AEF93FF93E0E1F0E00E949E
:100200005501FF91EF91C39859D0C39AEF93FF9393
:10021000E0E1F0E00E945501FF91EF91C3984ED0CC
:10022000C39AEF93FF93E0E1F0E00E945501FF9144
:10023000EF91C39843D0C498C39AEF93FF93E0E142
:10024000F0E00E945501FF91EF91C39837D088E20A
:100250000BD08EE009D086E007D00895C29A82952F
:1002600005D004D02BD00895C298F9CF859510F40D
:10027000C49A01C0C498859510F4C59A01C0C59868
:10028000859510F4C69A01C0C698859510F4C79A52
:1002900001C0C798C39AEF93FF93E0E1F0E00E949A
:1002A0005501FF91EF91C39808953197F1F70895A3
:1002B000689462F80895E89462F8089581E090E007
:1002C00000C0EF93FF93EE27E82BE92B31F0E8EC29
:1002D000F0E03197F1F70197D1F7FF91EF91089591
:1002E0008DE207FD8D938F2D881F802F881F8F57DC
:1002F000082F6894F7F8802F87FF15C080958395A5
:10030000082F80E38D938EE28D93802F815228F009
:1003100080E38D9399279C93089544270A95802F15
:1003200009F196D01FC0805230F09EE49D9381E485
:100330008D939D93EFCF4427DF92EF92FF920F931F
:100340008FE1801B11F0082F83D089D09EE29D930E
:100350000F91FF90EF90DF9044270395003209F44E
:10036000D7CF2BD03F93E0EFF3E038E12F2D1E2DB8
:100370000D2DFF24EE24DD244427000F111F221F22
:10038000A8F42F923F920E94E002102C0E94E002FB
:10039000202C0E94E002302C0E94E0023197410D97
:1003A000D21CE31CF01C3F902F9001C03396319675
:1003B0003A9519F73F9107D0AFCFDD0CEE1CFF1C2B
:1003C0000A95D9F70895002719E058D08F93802B0C
:1003D00011F0039501C08F911A95B9F7802F8823EA
:1003E00009F496CF8F91805D8D930A95D9F792CFBE
:1003F0000065CD1D80B2E60E40597307A0ACB9036D
:1004000050D6DC01286BEE0094357700CA9A3B0089
:1004100065CD1D00B2E60E0059730700ACB90300AC
:10042000D6DC01006BEE0000357700009A3B00003F
:10043000CD1D0000E60E000073070000B9030000A8
:10044000DC010000EE000000770000003B0000002F
:10045000F694E794D79447950A95D1F70895002725
:100460000DD08F9303958F2D8E298D29842BC1F765
:100470008F91805D8D930A95D9F74CCF1F930F9381
:10048000002710E2440FDD1CEE1CFF1C001F802F14
:100490009AE0890B10F0082F43951A9599F7802F51
:1004A0000F911F910895D190E190F19001910895DD
:1004B000102F90E8FF0C001F0927990FF794107870
:1004C000652F90E8440F551F5927990F479560787D
:1004D00000380895FF0C90E89027110F9795F79436
:1004E000092F0895102FBD2CDE2CEF2CF02E112398
:1004F0004AF4B094D094E094F0949FEFB91AD90ADA
:10050000E90AF90A0EE1FF2039F4FE2CED2CDB2C70
:10051000BB240850C2F71EC032F00A95BB0CDD1C8C
:10052000EE1CFF1CF9CF01D0D5CFB7FE089590E89F
:10053000B91611F4D0FE08959FEFD91AE90AF90A05
:1005400009F4039508959FE7092FF92A9FEFD92E03
:10055000E92E0895DD24EE24FF24002711270895B5
:10056000A7DFC1F35038B1F316270058505808944C
:10057000051F12F418F4E7CF08F0ECCF0AD0FF20E3
:100580002AF0BB0CDD1CEE1CFF1CA4CF0F5FDBF2BE
:10059000A1CF9F929924AA24BB24992788E1990C82
:1005A000AA1CBB1CDD1CEE1CFF1C30F4920EA31E0B
:1005B000B41ED91EE91EF91E8A9589F79F900895E9
:1005C000C895319600200895FBDF202DF9DF302DEE
:1005D000F7DF402DF5DF502D089591E0882321F0BD
:1005E0008894991F8A95E9F7892F90950895BB27DC
:1005F0000E94ED029C9198279C933197F1F79827E0
:100600009C9308950E945B01FF27AA27BB270E94A5
:10061000ED020823018009220182008008220026C1
:1006200019F41196D1F0F9CFAA27BB270080082230
:10063000002619F0119689F0F9CFAA27BB270000F0
:10064000000000000000000000000000000000802A
:100650000822002621F4119691F70E9458018A2F52
:100660009B2F089599278D9193958823E1F7939572
:1006700011968C9311978E919A95D1F70895EA2F40
:10068000FB2F00244C918D9103948E32E1F71124BD
:100690008D9113948823E1F71A94101640F4119762
:1006A000202F2119239580E38D932A95E9F71130A6
:1006B00039F59927AE2FBF2FA00DB91FA00FB91F75
:1006C0008C919C93853308F421C031E08E918E3259
:1006D000E9F38D3241F0830F8A3319F480E331E07E
:1006E00001C033278C93AE1789F7332341F0AE2F27
:1006F000BF2FB8DF81E34D3209F43196808308952E
:100700008827E00DF81FE00FF81F8083089581917E
:100710008D938823E1F7089594E081918D939A95C4
:10072000E1F70895FCA9313E4D6F6873656E0000D6
:10073000202044697374616E63652069733A000018
:04074000636D0000E5
:00000001FF
