:100000000C942A001895000018950000189500001F
:10001000189500001895000018950000189500002C
:10002000189500001895000018950000189500001C
:10003000189500001895000018950000189500000C
:1000400018950000189500001895000018950000FC
:10005000189500008FE58DBFC0E4E8E34E2E88E0E0
:100060008EBFD8E0F8E05F2EEEEFF7E0A0E6B0E05C
:10007000A89584B7082E877F84BF88E1992781BD22
:1000800091BD88278D933197E9F70E948E006624F1
:1000900082E886B980E487B9379A0E948600009189
:1000A00060000A3F10F00C945A00A0E6B0E08C917A
:1000B0008F5F8C93009160000A3F10F40C946300F2
:1000C00080E080936000E6E0F3E00E947F00A0E221
:1000D000B8E0E0E6F0E00E9439010E94770082E398
:1000E00090E00E9409010C944D00F894FFCFA0E22B
:1000F000B8E08D91882311F059D0FBCF08950E946C
:100100001801802D11F052D0FACF089581E054D01B
:1001100002D080E851C083E099277BC08AEF90E04D
:100120000E940901BF9ABE9ABD9ABC9ABB9ABA9A1C
:10013000C29885E090E00E940901C398C798C698CC
:10014000C59AC49AC39AEF93FF93E0E1F0E00E944E
:10015000FD00FF91EF91C39859D0C39AEF93FF939D
:10016000E0E1F0E00E94FD00FF91EF91C3984ED0D6
:10017000C39AEF93FF93E0E1F0E00E94FD00FF914E
:10018000EF91C39843D0C498C39AEF93FF93E0E1F3
:10019000F0E00E94FD00FF91EF91C39837D088E214
:1001A0000BD08EE009D086E007D00895C29A8295E0
:1001B00005D004D02BD00895C298F9CF859510F4BE
:1001C000C49A01C0C498859510F4C59A01C0C59819
:1001D000859510F4C69A01C0C698859510F4C79A03
:1001E00001C0C798C39AEF93FF93E0E1F0E00E944B
:1001F000FD00FF91EF91C39808953197F1F70895AD
:10020000689462F80895E89462F8089581E090E0B7
:1002100000C0EF93FF93EE27E82BE92B31F0E8ECD9
:10022000F0E03197F1F70197D1F7FF91EF91089541
:10023000C895319600200895000F111F221F331F0B
:10024000089500951095209530950F5F1F4F2F4F03
:100250003F4F0895019110810EC00191119121919C
:1002600030810BC00191108117FF05C03FEF2FEFC8
:1002700004C0008111272227332737FF03C0E1DFA5
:100280008DE28D93CF93DF93CF92DF92EF92AA24EA
:10029000BB24CC24DD24EE2440E2CAE0DD2755E077
:1002A00093E38881890F87FD9F7083FD907F891B71
:1002B00089935A95A9F7C0DFAA1CBB1CCC1CDD1C76
:1002C000EE1C4A9551F7E894EFE0FF2782910ED09B
:1002D000EB30E0F71EF068948A2D0CD088278D93C0
:1002E000EF90DF90CF90DF91CF910895982F829576
:1002F00001D0892F8F70805D26F0803309F4089536
:1003000068948D9308955468697320697320433A03
:020310002000CB
:00000001FF
