:100000000C942A001895000018950000189500001F
:10001000189500001895000018950000189500002C
:10002000189500001895000018950000189500001C
:10003000189500001895000018950000189500000C
:1000400018950000189500001895000018950000FC
:10005000189500008FE58DBFC0E4E8E34E2E88E0E0
:100060008EBFD8E0F8E05F2EEEEFF7E0A0E6B0E05C
:10007000A89584B7082E877F84BF88E1992781BD22
:1000800091BD88278D933197E9F70E947B00662404
:1000900082E886B980E487B9379A0E9466008FEBC0
:1000A00011E00E947500E2E1F2E00E945F0084EF3F
:1000B00091E00E94F6000C944D00F894FFCF0E944E
:1000C0000501802D11F05FD0FACF089581E061D055
:1000D0000FD080E85EC08FE7213039F08FEB2230FF
:1000E00021F08FE8233009F08FEC810F0C94C900C8
:1000F00083E099277BC08AEF90E00E94F600BF9AC8
:10010000BE9ABD9ABC9ABB9ABA9AC29885E090E012
:100110000E94F600C398C798C698C59AC49AC39A15
:10012000EF93FF93E0E1F0E00E94EA00FF91EF918E
:10013000C39859D0C39AEF93FF93E0E1F0E00E9497
:10014000EA00FF91EF91C3984ED0C39AEF93FF93CB
:10015000E0E1F0E00E94EA00FF91EF91C39843D004
:10016000C498C39AEF93FF93E0E1F0E00E94EA00A5
:10017000FF91EF91C39837D088E20BD08EE009D081
:1001800086E007D00895C29A829505D004D02BD07E
:100190000895C298F9CF859510F4C49A01C0C49807
:1001A000859510F4C59A01C0C598859510F4C69A36
:1001B00001C0C698859510F4C79A01C0C798C39A24
:1001C000EF93FF93E0E1F0E00E94EA00FF91EF91EE
:1001D000C39808953197F1F70895689462F80895E7
:1001E000E89462F8089581E090E000C0EF93FF93F7
:1001F000EE27E82BE92B31F0E8ECF0E03197F1F74E
:100200000197D1F7FF91EF910895C895319600209D
:10021000089520204D6F6873656E20526F636B7375
:020220002000BC
:00000001FF
